S0200000666C6173685F70726F6772616D6D65725F617672323536302E73726563E6
S113000071C0000086C0000084C0000082C00000EF
S113001080C000007EC000007CC000007AC00000E8
S113002078C0000076C0000074C0000072C00000F8
S113003070C000006EC000006CC000006AC0000008
S113004068C0000066C0000064C0000062C0000018
S113005060C000005EC000005CC000005AC0000028
S113006058C0000056C0000054C0000052C0000038
S113007050C000004EC000004CC000004AC0000048
S113008048C0000046C0000044C0000042C0000058
S113009040C000003EC000003CC000003AC0000068
S11300A038C0000036C0000034C0000032C0000078
S11300B030C000002EC000002CC000002AC0000088
S11300C028C0000026C0000024C0000022C0000098
S11300D020C000001EC000001CC000001AC00000A8
S11300E018C0000011241FBECFEFD1E2DEBFCDBF88
S11300F000E00CBF12E0A0E0B2E0E0E5F5E000E0D3
S11301000BBF02C007900D92AA32B107D9F702D0F3
S11301101DC276CFCF93DF93CDB7DEB728970FB646
S1130120F894DEBF0FBECDBF2FEF39E688E1215032
S113013030408040E1F700C00000E3D11A82198208
S11301401C821B8283B180772F989FEF27EA31E6C8
S1130150915020403040E1F700C00000803709F0A2
S113016056C039D1279A41C0E1D190E09A8389835E
S1130170DDD129813A81382B3A832983BE016F5F0F
S11301807F4FCE01059646D08D819E81AF81B88583
S11301900196A11DB11D8D839E83AF83B8870097FF
S11301A0A440B10508F3279A20C0279A81111DC0E5
S11301B01D821E821F821886BE016D5F7F4FCE0195
S11301C00596CED08B81BAD18C81B8D18D819E8198
S11301D0AF81B8850196A11DB11D8D839E83AF8328
S11301E0B8870097A440B10538F38FEF93ED20E36F
S11301F0815090402040E1F700C0000085B1805854
S113020085B9F3CF1D821E821F821886ADCF80323E
S113021061F6F8CF6F927F928F929F92AF92BF92C6
S1130220CF92DF92EF92FF920F931F93CF93DF93BE
S1130230CDB7DEB72F970FB6F894DEBF0FBECDBF94
S1130240AC018CE0E0E0F2E0DE01119601900D9249
S11302508A95E1F78AEA8D8785E58E8780EA8F871C
S11302608FEF87B981B9EBE0F1E08081877F8083EC
S1130270808180618083CE0101963C019E01235FD1
S11302803F4F790108E011E06301D3018C9181BBF8
S11302908D909D90AD90BD903D01892C9A2CAB2CF6
S11302A0BB24D8018C928081887F80839081D60181
S11302B012968C918770892B8083D9018C9188B98F
S11302C08D919D0182B9000090819F7D90830000F3
S11302D090819062908300006E147F04A9F6FA0165
S11302E0808181BB80819181A281B381892F9A2FE2
S11302F0AB2FBB2780930801EBE0F1E08081887F7E
S113030080839081DA0112968C918770892B808387
S1130310DB018C9188B911968C9182B9000080819F
S11303208F7D808300008081806280830000BAE139
S1130330BA95F1F700C02F960FB6F894DEBF0FBE42
S1130340CDBFDF91CF911F910F91FF90EF90DF9080
S1130350CF90BF90AF909F908F907F906F900895B3
S11303600F931F93DC0117B811B8EBE0F1E0808123
S1130370806280838C9181BB0D911D912D913C9164
S11303801397012F122F232F332700930801808105
S1130390887F8083908112968C918770892B8083CB
S11303A08081877F808380818F7E808300002F9A65
S11303B080B190E0982F8827DB0111969C938E934F
S11303C026B1822B8D939C932F98808180618083AA
S11303D01F910F910895AF92BF92CF92DF92EF9247
S11303E0FF920F931F93CF93DF93CDB7DEB76E9732
S11303F00FB6F894DEBF0FBECDBF88E1ECE0F2E0AB
S1130400DE01119601900D928A95E1F786E0E4E20F
S1130410F2E0DE01599601900D928A95E1F78FEF93
S113042087B981B9EBE0F1E08081877F80838081A7
S113043080618083CE0101965C019E01275E3F4F5F
S1130440B90148E051E08501D5018C9181BBCD9083
S1130450DD90ED90FD905D01CD2CDE2CEF2CFF2482
S1130460DA01CC928081887F80839081D8011296B2
S11304708C918770892B8083D9018C9188B98D9157
S11304809D0182B9000080818F7D8083000080817E
S1130490806280830000A616B706A9F6BFEF21EE9E
S11304A084E0B15020408040E1F700C000006E9627
S11304B00FB6F894DEBF0FBECDBFDF91CF911F9171
S11304C00F91FF90EF90DF90CF90BF90AF90089581
S11304D085B7806185BFEAE0F1E08081886380832D
S11304E0ABE0B1E08C9188638C93808187608083DA
S11304F08FEF8093070180BB279A2698259824982C
S1130500089502D0E5CF0895E4E6F0E080818D7F80
S113051080831092C50080E18093C40082E08093C0
S1130520C00088E98093C10080E00895E0ECF0E029
S113053080818823ECF78091C60008958093C600DB
S1130540E0ECF0E0808185FFFDCF0895F894FFCFC3
S113055055550000AA2A00005555000055550000C5
S1130560AA2A00005555000055550000AA2A00008B
S10D057055550000AA5580AA551045
S9030000FC
