S0200000666C6173685F70726F6772616D6D65725F617672323536302E73726563E6
S113000071C0000086C0000084C0000082C00000EF
S113001080C000007EC000007CC000007AC00000E8
S113002078C0000076C0000074C0000072C00000F8
S113003070C000006EC000006CC000006AC0000008
S113004068C0000066C0000064C0000062C0000018
S113005060C000005EC000005CC000005AC0000028
S113006058C0000056C0000054C0000052C0000038
S113007050C000004EC000004CC000004AC0000048
S113008048C0000046C0000044C0000042C0000058
S113009040C000003EC000003CC000003AC0000068
S11300A038C0000036C0000034C0000032C0000078
S11300B030C000002EC000002CC000002AC0000088
S11300C028C0000026C0000024C0000022C0000098
S11300D020C000001EC000001CC000001AC00000A8
S11300E018C0000011241FBECFEFD1E2DEBFCDBF88
S11300F000E00CBF12E0A0E0B2E0E4E7F2E000E0D0
S11301000BBF02C007900D92A030B107D9F702D0FF
S1130110AFC076CFCF93DF9300D000D0CDB7DEB79A
S11301202FEF89E698E1215080409040E1F700C02C
S1130130000081D019821A821B821C821E821D82B9
S113014085B1807885B92FEF8FE493EC21508040FE
S11301509040E1F700C0000019821A821B821C82C1
S1130160BE016B5F7F4FCE01019619D08D8178D08F
S11301708E8176D089819A81AB81BC810196A11D43
S1130180B11D89839A83AB83BC832FEF81EE94E006
S1130190215080409040E1F700C00000E1CF0F9370
S11301A01F93DC0117B811B8EBE0F1E080818062A5
S11301B080838C9181BB0D911D912D913C9113975E
S11301C0012F122F232F33270093080190811296B9
S11301D08C918770892B80838081877F8083808145
S11301E08F7E8083000080B190E0982F8827DB0108
S11301F011969C938E9326B1822B8D939C93808130
S1130200806180831F910F91089585B7806185BFB8
S1130210EAE0F1E0808188638083ABE0B1E08C9117
S113022088638C938081876080838FEF809307013C
S113023080BB279A089502D0E8CF0895E4E6F0E061
S113024080818D7F80831092C50080E18093C400FB
S113025082E08093C00088E98093C10080E0089523
S11302608093C600E0ECF0E0808185FFFDCF089527
S1070270F894FFCF2C
S9030000FC
